{
  "contractName": "PocketCrypto",
  "abi": [
    {
      "inputs": [
        {
          "internalType": "address",
          "name": "",
          "type": "address"
        }
      ],
      "name": "account",
      "outputs": [
        {
          "internalType": "address",
          "name": "owner",
          "type": "address"
        },
        {
          "internalType": "enum PocketCrypto.Role",
          "name": "role",
          "type": "uint8"
        },
        {
          "internalType": "string",
          "name": "nickname",
          "type": "string"
        },
        {
          "internalType": "bool",
          "name": "isAccount",
          "type": "bool"
        }
      ],
      "stateMutability": "view",
      "type": "function",
      "constant": true
    },
    {
      "inputs": [
        {
          "internalType": "address",
          "name": "",
          "type": "address"
        }
      ],
      "name": "guardian",
      "outputs": [
        {
          "internalType": "address",
          "name": "owner",
          "type": "address"
        },
        {
          "internalType": "enum PocketCrypto.Role",
          "name": "role",
          "type": "uint8"
        },
        {
          "internalType": "string",
          "name": "nickname",
          "type": "string"
        },
        {
          "internalType": "bool",
          "name": "isAccount",
          "type": "bool"
        }
      ],
      "stateMutability": "view",
      "type": "function",
      "constant": true
    },
    {
      "inputs": [
        {
          "internalType": "uint256",
          "name": "",
          "type": "uint256"
        }
      ],
      "name": "transactions",
      "outputs": [
        {
          "internalType": "uint256",
          "name": "id",
          "type": "uint256"
        },
        {
          "internalType": "address",
          "name": "from",
          "type": "address"
        },
        {
          "internalType": "address",
          "name": "to",
          "type": "address"
        },
        {
          "internalType": "uint256",
          "name": "amount",
          "type": "uint256"
        },
        {
          "internalType": "uint256",
          "name": "date",
          "type": "uint256"
        },
        {
          "internalType": "enum PocketCrypto.TransactionStatus",
          "name": "status",
          "type": "uint8"
        }
      ],
      "stateMutability": "view",
      "type": "function",
      "constant": true
    },
    {
      "inputs": [
        {
          "internalType": "uint256",
          "name": "",
          "type": "uint256"
        }
      ],
      "name": "wardAccounts",
      "outputs": [
        {
          "internalType": "address",
          "name": "owner",
          "type": "address"
        },
        {
          "internalType": "enum PocketCrypto.Role",
          "name": "role",
          "type": "uint8"
        },
        {
          "internalType": "string",
          "name": "nickname",
          "type": "string"
        },
        {
          "internalType": "bool",
          "name": "isAccount",
          "type": "bool"
        }
      ],
      "stateMutability": "view",
      "type": "function",
      "constant": true
    },
    {
      "inputs": [
        {
          "internalType": "address",
          "name": "",
          "type": "address"
        },
        {
          "internalType": "uint256",
          "name": "",
          "type": "uint256"
        }
      ],
      "name": "wards",
      "outputs": [
        {
          "internalType": "address",
          "name": "owner",
          "type": "address"
        },
        {
          "internalType": "enum PocketCrypto.Role",
          "name": "role",
          "type": "uint8"
        },
        {
          "internalType": "string",
          "name": "nickname",
          "type": "string"
        },
        {
          "internalType": "bool",
          "name": "isAccount",
          "type": "bool"
        }
      ],
      "stateMutability": "view",
      "type": "function",
      "constant": true
    },
    {
      "inputs": [
        {
          "internalType": "enum PocketCrypto.Role",
          "name": "_role",
          "type": "uint8"
        },
        {
          "internalType": "string",
          "name": "_nickname",
          "type": "string"
        }
      ],
      "name": "addAccount",
      "outputs": [],
      "stateMutability": "nonpayable",
      "type": "function"
    },
    {
      "inputs": [
        {
          "internalType": "address",
          "name": "_ward",
          "type": "address"
        }
      ],
      "name": "addWard",
      "outputs": [],
      "stateMutability": "nonpayable",
      "type": "function"
    },
    {
      "inputs": [
        {
          "internalType": "address",
          "name": "_ward",
          "type": "address"
        }
      ],
      "name": "deleteWard",
      "outputs": [],
      "stateMutability": "nonpayable",
      "type": "function"
    },
    {
      "inputs": [
        {
          "internalType": "address",
          "name": "_guardian",
          "type": "address"
        },
        {
          "internalType": "uint256",
          "name": "_amount",
          "type": "uint256"
        }
      ],
      "name": "requestTransaction",
      "outputs": [],
      "stateMutability": "nonpayable",
      "type": "function"
    },
    {
      "inputs": [
        {
          "internalType": "uint256",
          "name": "_id",
          "type": "uint256"
        },
        {
          "internalType": "address",
          "name": "_ward",
          "type": "address"
        }
      ],
      "name": "approveTransaction",
      "outputs": [],
      "stateMutability": "nonpayable",
      "type": "function"
    },
    {
      "inputs": [
        {
          "internalType": "uint256",
          "name": "_id",
          "type": "uint256"
        },
        {
          "internalType": "address",
          "name": "_ward",
          "type": "address"
        }
      ],
      "name": "rejectTransaction",
      "outputs": [],
      "stateMutability": "nonpayable",
      "type": "function"
    },
    {
      "inputs": [],
      "name": "getAllWards",
      "outputs": [
        {
          "components": [
            {
              "internalType": "address",
              "name": "owner",
              "type": "address"
            },
            {
              "internalType": "enum PocketCrypto.Role",
              "name": "role",
              "type": "uint8"
            },
            {
              "internalType": "string",
              "name": "nickname",
              "type": "string"
            },
            {
              "internalType": "bool",
              "name": "isAccount",
              "type": "bool"
            }
          ],
          "internalType": "struct PocketCrypto.Account[]",
          "name": "",
          "type": "tuple[]"
        }
      ],
      "stateMutability": "view",
      "type": "function",
      "constant": true
    },
    {
      "inputs": [
        {
          "internalType": "address",
          "name": "_guardian",
          "type": "address"
        }
      ],
      "name": "getWardsByGuardian",
      "outputs": [
        {
          "components": [
            {
              "internalType": "address",
              "name": "owner",
              "type": "address"
            },
            {
              "internalType": "enum PocketCrypto.Role",
              "name": "role",
              "type": "uint8"
            },
            {
              "internalType": "string",
              "name": "nickname",
              "type": "string"
            },
            {
              "internalType": "bool",
              "name": "isAccount",
              "type": "bool"
            }
          ],
          "internalType": "struct PocketCrypto.Account[]",
          "name": "",
          "type": "tuple[]"
        }
      ],
      "stateMutability": "view",
      "type": "function",
      "constant": true
    }
  ],
  "bytecode": "0x60806040526000805534801561001457600080fd5b506135a2806100246000396000f3fe608060405234801561001057600080fd5b50600436106100cf5760003560e01c806395a1edfa1161008c578063ee9c268111610066578063ee9c268114610244578063f29e223614610260578063f5f871f314610293578063fddd776c146102af576100cf565b806395a1edfa146101a95780639ace38c2146101dc578063c1fcc30714610211576100cf565b80631673e55f146100d45780632f8076d1146100f257806344452f021461010e57806373b9aa911461012a578063822138121461015d57806384166c5214610179575b600080fd5b6100dc6102cb565b6040516100e99190612c20565b60405180910390f35b61010c60048036038101906101079190612cb8565b610468565b005b61012860048036038101906101239190612cf8565b610746565b005b610144600480360381019061013f9190612d38565b610cd6565b6040516101549493929190612ddc565b60405180910390f35b61017760048036038101906101729190612f82565b610dc8565b005b610193600480360381019061018e9190612d38565b61117c565b6040516101a09190612c20565b60405180910390f35b6101c360048036038101906101be9190612cf8565b611358565b6040516101d39493929190612ddc565b60405180910390f35b6101f660048036038101906101f19190612fde565b611467565b60405161020896959493929190613062565b60405180910390f35b61022b60048036038101906102269190612fde565b6114f0565b60405161023b9493929190612ddc565b60405180910390f35b61025e60048036038101906102599190612d38565b6115f2565b005b61027a60048036038101906102759190612d38565b611bc0565b60405161028a9493929190612ddc565b60405180910390f35b6102ad60048036038101906102a89190612cb8565b611cb2565b005b6102c960048036038101906102c49190612d38565b612000565b005b60606001805480602002602001604051908101604052809291908181526020016000905b8282101561045f57838290600052602060002090600302016040518060800160405290816000820160009054906101000a900473ffffffffffffffffffffffffffffffffffffffff1673ffffffffffffffffffffffffffffffffffffffff1673ffffffffffffffffffffffffffffffffffffffff1681526020016000820160149054906101000a900460ff16600181111561038d5761038c6129fc565b5b600181111561039f5761039e6129fc565b5b81526020016001820180546103b3906130f2565b80601f01602080910402602001604051908101604052809291908181526020018280546103df906130f2565b801561042c5780601f106104015761010080835404028352916020019161042c565b820191906000526020600020905b81548152906001019060200180831161040f57829003601f168201915b505050505081526020016002820160009054906101000a900460ff161515151581525050815260200190600101906102ef565b50505050905090565b816005600084815260200190815260200160002060000154146104c0576040517f08c379a00000000000000000000000000000000000000000000000000000000081526004016104b79061316f565b60405180910390fd5b60011515600260008373ffffffffffffffffffffffffffffffffffffffff1673ffffffffffffffffffffffffffffffffffffffff16815260200190815260200160002060020160009054906101000a900460ff1615151480156105955750600180811115610531576105306129fc565b5b600260008373ffffffffffffffffffffffffffffffffffffffff1673ffffffffffffffffffffffffffffffffffffffff16815260200190815260200160002060000160149054906101000a900460ff166001811115610593576105926129fc565b5b145b6105d4576040517f08c379a00000000000000000000000000000000000000000000000000000000081526004016105cb906131db565b60405180910390fd5b60011515600460008373ffffffffffffffffffffffffffffffffffffffff1673ffffffffffffffffffffffffffffffffffffffff16815260200190815260200160002060020160009054906101000a900460ff1615151480156106c457503373ffffffffffffffffffffffffffffffffffffffff16600460008373ffffffffffffffffffffffffffffffffffffffff1673ffffffffffffffffffffffffffffffffffffffff16815260200190815260200160002060000160009054906101000a900473ffffffffffffffffffffffffffffffffffffffff1673ffffffffffffffffffffffffffffffffffffffff16145b610703576040517f08c379a00000000000000000000000000000000000000000000000000000000081526004016106fa90613247565b60405180910390fd5b60036005600084815260200190815260200160002060050160006101000a81548160ff0219169083600381111561073d5761073c6129fc565b5b02179055505050565b60011515600260003373ffffffffffffffffffffffffffffffffffffffff1673ffffffffffffffffffffffffffffffffffffffff16815260200190815260200160002060020160009054906101000a900460ff16151514801561081b57506001808111156107b7576107b66129fc565b5b600260003373ffffffffffffffffffffffffffffffffffffffff1673ffffffffffffffffffffffffffffffffffffffff16815260200190815260200160002060000160149054906101000a900460ff166001811115610819576108186129fc565b5b145b61085a576040517f08c379a0000000000000000000000000000000000000000000000000000000008152600401610851906131db565b60405180910390fd5b60011515600260008473ffffffffffffffffffffffffffffffffffffffff1673ffffffffffffffffffffffffffffffffffffffff16815260200190815260200160002060020160009054906101000a900460ff1615151480156109305750600060018111156108cc576108cb6129fc565b5b600260008473ffffffffffffffffffffffffffffffffffffffff1673ffffffffffffffffffffffffffffffffffffffff16815260200190815260200160002060000160149054906101000a900460ff16600181111561092e5761092d6129fc565b5b145b61096f576040517f08c379a0000000000000000000000000000000000000000000000000000000008152600401610966906132d9565b60405180910390fd5b60011515600460003373ffffffffffffffffffffffffffffffffffffffff1673ffffffffffffffffffffffffffffffffffffffff16815260200190815260200160002060020160009054906101000a900460ff161515148015610a5f57508173ffffffffffffffffffffffffffffffffffffffff16600460003373ffffffffffffffffffffffffffffffffffffffff1673ffffffffffffffffffffffffffffffffffffffff16815260200190815260200160002060000160009054906101000a900473ffffffffffffffffffffffffffffffffffffffff1673ffffffffffffffffffffffffffffffffffffffff16145b610a9e576040517f08c379a0000000000000000000000000000000000000000000000000000000008152600401610a9590613247565b60405180910390fd5b80600260008473ffffffffffffffffffffffffffffffffffffffff1673ffffffffffffffffffffffffffffffffffffffff16815260200190815260200160002060000160009054906101000a900473ffffffffffffffffffffffffffffffffffffffff1673ffffffffffffffffffffffffffffffffffffffff16311015610b5a576040517f08c379a0000000000000000000000000000000000000000000000000000000008152600401610b519061336b565b60405180910390fd5b600080815480929190610b6c906133ba565b91905055506040518060c0016040528060005481526020018373ffffffffffffffffffffffffffffffffffffffff1681526020013373ffffffffffffffffffffffffffffffffffffffff16815260200182815260200142815260200160016003811115610bdc57610bdb6129fc565b5b81525060056000805481526020019081526020016000206000820151816000015560208201518160010160006101000a81548173ffffffffffffffffffffffffffffffffffffffff021916908373ffffffffffffffffffffffffffffffffffffffff16021790555060408201518160020160006101000a81548173ffffffffffffffffffffffffffffffffffffffff021916908373ffffffffffffffffffffffffffffffffffffffff160217905550606082015181600301556080820151816004015560a08201518160050160006101000a81548160ff02191690836003811115610cca57610cc96129fc565b5b02179055509050505050565b60026020528060005260406000206000915090508060000160009054906101000a900473ffffffffffffffffffffffffffffffffffffffff16908060000160149054906101000a900460ff1690806001018054610d32906130f2565b80601f0160208091040260200160405190810160405280929190818152602001828054610d5e906130f2565b8015610dab5780601f10610d8057610100808354040283529160200191610dab565b820191906000526020600020905b815481529060010190602001808311610d8e57829003601f168201915b5050505050908060020160009054906101000a900460ff16905084565b60001515600260003373ffffffffffffffffffffffffffffffffffffffff1673ffffffffffffffffffffffffffffffffffffffff16815260200190815260200160002060020160009054906101000a900460ff16151514610e5e576040517f08c379a0000000000000000000000000000000000000000000000000000000008152600401610e559061344e565b60405180910390fd5b60405180608001604052803373ffffffffffffffffffffffffffffffffffffffff168152602001836001811115610e9857610e976129fc565b5b815260200182815260200160011515815250600260003373ffffffffffffffffffffffffffffffffffffffff1673ffffffffffffffffffffffffffffffffffffffff16815260200190815260200160002060008201518160000160006101000a81548173ffffffffffffffffffffffffffffffffffffffff021916908373ffffffffffffffffffffffffffffffffffffffff16021790555060208201518160000160146101000a81548160ff02191690836001811115610f5b57610f5a6129fc565b5b02179055506040820151816001019080519060200190610f7c92919061281f565b5060608201518160020160006101000a81548160ff021916908315150217905550905050600180811115610fb357610fb26129fc565b5b600260003373ffffffffffffffffffffffffffffffffffffffff1673ffffffffffffffffffffffffffffffffffffffff16815260200190815260200160002060000160149054906101000a900460ff166001811115611015576110146129fc565b5b03611178576001600260003373ffffffffffffffffffffffffffffffffffffffff1673ffffffffffffffffffffffffffffffffffffffff16815260200190815260200160002090806001815401808255809150506001900390600052602060002090600302016000909190919091506000820160009054906101000a900473ffffffffffffffffffffffffffffffffffffffff168160000160006101000a81548173ffffffffffffffffffffffffffffffffffffffff021916908373ffffffffffffffffffffffffffffffffffffffff1602179055506000820160149054906101000a900460ff168160000160146101000a81548160ff02191690836001811115611123576111226129fc565b5b0217905550600182018160010190805461113c906130f2565b6111479291906128a5565b506002820160009054906101000a900460ff168160020160006101000a81548160ff02191690831515021790555050505b5050565b6060600360008373ffffffffffffffffffffffffffffffffffffffff1673ffffffffffffffffffffffffffffffffffffffff168152602001908152602001600020805480602002602001604051908101604052809291908181526020016000905b8282101561134d57838290600052602060002090600302016040518060800160405290816000820160009054906101000a900473ffffffffffffffffffffffffffffffffffffffff1673ffffffffffffffffffffffffffffffffffffffff1673ffffffffffffffffffffffffffffffffffffffff1681526020016000820160149054906101000a900460ff16600181111561127b5761127a6129fc565b5b600181111561128d5761128c6129fc565b5b81526020016001820180546112a1906130f2565b80601f01602080910402602001604051908101604052809291908181526020018280546112cd906130f2565b801561131a5780601f106112ef5761010080835404028352916020019161131a565b820191906000526020600020905b8154815290600101906020018083116112fd57829003601f168201915b505050505081526020016002820160009054906101000a900460ff161515151581525050815260200190600101906111dd565b505050509050919050565b6003602052816000526040600020818154811061137457600080fd5b9060005260206000209060030201600091509150508060000160009054906101000a900473ffffffffffffffffffffffffffffffffffffffff16908060000160149054906101000a900460ff16908060010180546113d1906130f2565b80601f01602080910402602001604051908101604052809291908181526020018280546113fd906130f2565b801561144a5780601f1061141f5761010080835404028352916020019161144a565b820191906000526020600020905b81548152906001019060200180831161142d57829003601f168201915b5050505050908060020160009054906101000a900460ff16905084565b60056020528060005260406000206000915090508060000154908060010160009054906101000a900473ffffffffffffffffffffffffffffffffffffffff16908060020160009054906101000a900473ffffffffffffffffffffffffffffffffffffffff16908060030154908060040154908060050160009054906101000a900460ff16905086565b6001818154811061150057600080fd5b90600052602060002090600302016000915090508060000160009054906101000a900473ffffffffffffffffffffffffffffffffffffffff16908060000160149054906101000a900460ff169080600101805461155c906130f2565b80601f0160208091040260200160405190810160405280929190818152602001828054611588906130f2565b80156115d55780601f106115aa576101008083540402835291602001916115d5565b820191906000526020600020905b8154815290600101906020018083116115b857829003601f168201915b5050505050908060020160009054906101000a900460ff16905084565b60011515600260003373ffffffffffffffffffffffffffffffffffffffff1673ffffffffffffffffffffffffffffffffffffffff16815260200190815260200160002060020160009054906101000a900460ff1615151480156116c8575060006001811115611664576116636129fc565b5b600260003373ffffffffffffffffffffffffffffffffffffffff1673ffffffffffffffffffffffffffffffffffffffff16815260200190815260200160002060000160149054906101000a900460ff1660018111156116c6576116c56129fc565b5b145b611707576040517f08c379a00000000000000000000000000000000000000000000000000000000081526004016116fe906132d9565b60405180910390fd5b60011515600260008373ffffffffffffffffffffffffffffffffffffffff1673ffffffffffffffffffffffffffffffffffffffff16815260200190815260200160002060020160009054906101000a900460ff1615151480156117dc5750600180811115611778576117776129fc565b5b600260008373ffffffffffffffffffffffffffffffffffffffff1673ffffffffffffffffffffffffffffffffffffffff16815260200190815260200160002060000160149054906101000a900460ff1660018111156117da576117d96129fc565b5b145b61181b576040517f08c379a0000000000000000000000000000000000000000000000000000000008152600401611812906131db565b60405180910390fd5b60001515600460008373ffffffffffffffffffffffffffffffffffffffff1673ffffffffffffffffffffffffffffffffffffffff16815260200190815260200160002060020160009054906101000a900460ff161515146118b1576040517f08c379a00000000000000000000000000000000000000000000000000000000081526004016118a8906134ba565b60405180910390fd5b600360003373ffffffffffffffffffffffffffffffffffffffff1673ffffffffffffffffffffffffffffffffffffffff168152602001908152602001600020600260008373ffffffffffffffffffffffffffffffffffffffff1673ffffffffffffffffffffffffffffffffffffffff16815260200190815260200160002090806001815401808255809150506001900390600052602060002090600302016000909190919091506000820160009054906101000a900473ffffffffffffffffffffffffffffffffffffffff168160000160006101000a81548173ffffffffffffffffffffffffffffffffffffffff021916908373ffffffffffffffffffffffffffffffffffffffff1602179055506000820160149054906101000a900460ff168160000160146101000a81548160ff021916908360018111156119f7576119f66129fc565b5b02179055506001820181600101908054611a10906130f2565b611a1b9291906128a5565b506002820160009054906101000a900460ff168160020160006101000a81548160ff0219169083151502179055505050600260003373ffffffffffffffffffffffffffffffffffffffff1673ffffffffffffffffffffffffffffffffffffffff168152602001908152602001600020600460008373ffffffffffffffffffffffffffffffffffffffff1673ffffffffffffffffffffffffffffffffffffffff1681526020019081526020016000206000820160009054906101000a900473ffffffffffffffffffffffffffffffffffffffff168160000160006101000a81548173ffffffffffffffffffffffffffffffffffffffff021916908373ffffffffffffffffffffffffffffffffffffffff1602179055506000820160149054906101000a900460ff168160000160146101000a81548160ff02191690836001811115611b6857611b676129fc565b5b02179055506001820181600101908054611b81906130f2565b611b8c9291906128a5565b506002820160009054906101000a900460ff168160020160006101000a81548160ff02191690831515021790555090505050565b60046020528060005260406000206000915090508060000160009054906101000a900473ffffffffffffffffffffffffffffffffffffffff16908060000160149054906101000a900460ff1690806001018054611c1c906130f2565b80601f0160208091040260200160405190810160405280929190818152602001828054611c48906130f2565b8015611c955780601f10611c6a57610100808354040283529160200191611c95565b820191906000526020600020905b815481529060010190602001808311611c7857829003601f168201915b5050505050908060020160009054906101000a900460ff16905084565b81600560008481526020019081526020016000206000015414611d0a576040517f08c379a0000000000000000000000000000000000000000000000000000000008152600401611d019061316f565b60405180910390fd5b60011515600260008373ffffffffffffffffffffffffffffffffffffffff1673ffffffffffffffffffffffffffffffffffffffff16815260200190815260200160002060020160009054906101000a900460ff161515148015611ddf5750600180811115611d7b57611d7a6129fc565b5b600260008373ffffffffffffffffffffffffffffffffffffffff1673ffffffffffffffffffffffffffffffffffffffff16815260200190815260200160002060000160149054906101000a900460ff166001811115611ddd57611ddc6129fc565b5b145b611e1e576040517f08c379a0000000000000000000000000000000000000000000000000000000008152600401611e15906131db565b60405180910390fd5b60011515600460008373ffffffffffffffffffffffffffffffffffffffff1673ffffffffffffffffffffffffffffffffffffffff16815260200190815260200160002060020160009054906101000a900460ff161515148015611f0e57503373ffffffffffffffffffffffffffffffffffffffff16600460008373ffffffffffffffffffffffffffffffffffffffff1673ffffffffffffffffffffffffffffffffffffffff16815260200190815260200160002060000160009054906101000a900473ffffffffffffffffffffffffffffffffffffffff1673ffffffffffffffffffffffffffffffffffffffff16145b611f4d576040517f08c379a0000000000000000000000000000000000000000000000000000000008152600401611f4490613247565b60405180910390fd5b60056000838152602001908152602001600020600301543373ffffffffffffffffffffffffffffffffffffffff16311015611fbd576040517f08c379a0000000000000000000000000000000000000000000000000000000008152600401611fb49061336b565b60405180910390fd5b60026005600084815260200190815260200160002060050160006101000a81548160ff02191690836003811115611ff757611ff66129fc565b5b02179055505050565b60011515600260003373ffffffffffffffffffffffffffffffffffffffff1673ffffffffffffffffffffffffffffffffffffffff16815260200190815260200160002060020160009054906101000a900460ff1615151480156120d6575060006001811115612072576120716129fc565b5b600260003373ffffffffffffffffffffffffffffffffffffffff1673ffffffffffffffffffffffffffffffffffffffff16815260200190815260200160002060000160149054906101000a900460ff1660018111156120d4576120d36129fc565b5b145b612115576040517f08c379a000000000000000000000000000000000000000000000000000000000815260040161210c906132d9565b60405180910390fd5b60011515600260008373ffffffffffffffffffffffffffffffffffffffff1673ffffffffffffffffffffffffffffffffffffffff16815260200190815260200160002060020160009054906101000a900460ff1615151480156121ea5750600180811115612186576121856129fc565b5b600260008373ffffffffffffffffffffffffffffffffffffffff1673ffffffffffffffffffffffffffffffffffffffff16815260200190815260200160002060000160149054906101000a900460ff1660018111156121e8576121e76129fc565b5b145b612229576040517f08c379a0000000000000000000000000000000000000000000000000000000008152600401612220906131db565b60405180910390fd5b60011515600460008373ffffffffffffffffffffffffffffffffffffffff1673ffffffffffffffffffffffffffffffffffffffff16815260200190815260200160002060020160009054906101000a900460ff16151514801561231957503373ffffffffffffffffffffffffffffffffffffffff16600460008373ffffffffffffffffffffffffffffffffffffffff1673ffffffffffffffffffffffffffffffffffffffff16815260200190815260200160002060000160009054906101000a900473ffffffffffffffffffffffffffffffffffffffff1673ffffffffffffffffffffffffffffffffffffffff16145b612358576040517f08c379a000000000000000000000000000000000000000000000000000000000815260040161234f90613247565b60405180910390fd5b612361336123bf565b6000600460008373ffffffffffffffffffffffffffffffffffffffff1673ffffffffffffffffffffffffffffffffffffffff16815260200190815260200160002060020160006101000a81548160ff02191690831515021790555050565b60005b600360008373ffffffffffffffffffffffffffffffffffffffff1673ffffffffffffffffffffffffffffffffffffffff1681526020019081526020016000208054905081101561281b578173ffffffffffffffffffffffffffffffffffffffff16600360008473ffffffffffffffffffffffffffffffffffffffff1673ffffffffffffffffffffffffffffffffffffffff1681526020019081526020016000208281548110612474576124736134da565b5b906000526020600020906003020160000160009054906101000a900473ffffffffffffffffffffffffffffffffffffffff1673ffffffffffffffffffffffffffffffffffffffff1603612808576000600360008473ffffffffffffffffffffffffffffffffffffffff1673ffffffffffffffffffffffffffffffffffffffff1681526020019081526020016000208281548110612514576125136134da565b5b906000526020600020906003020160020160006101000a81548160ff021916908315150217905550600360008373ffffffffffffffffffffffffffffffffffffffff1673ffffffffffffffffffffffffffffffffffffffff1681526020019081526020016000206001600360008573ffffffffffffffffffffffffffffffffffffffff1673ffffffffffffffffffffffffffffffffffffffff168152602001908152602001600020805490506125ca9190613509565b815481106125db576125da6134da565b5b9060005260206000209060030201600360008473ffffffffffffffffffffffffffffffffffffffff1673ffffffffffffffffffffffffffffffffffffffff168152602001908152602001600020828154811061263a576126396134da565b5b90600052602060002090600302016000820160009054906101000a900473ffffffffffffffffffffffffffffffffffffffff168160000160006101000a81548173ffffffffffffffffffffffffffffffffffffffff021916908373ffffffffffffffffffffffffffffffffffffffff1602179055506000820160149054906101000a900460ff168160000160146101000a81548160ff021916908360018111156126e7576126e66129fc565b5b02179055506001820181600101908054612700906130f2565b61270b9291906128a5565b506002820160009054906101000a900460ff168160020160006101000a81548160ff021916908315150217905550905050600360008373ffffffffffffffffffffffffffffffffffffffff1673ffffffffffffffffffffffffffffffffffffffff16815260200190815260200160002080548061278b5761278a61353d565b5b6001900381819060005260206000209060030201600080820160006101000a81549073ffffffffffffffffffffffffffffffffffffffff02191690556000820160146101000a81549060ff02191690556001820160006127eb9190612932565b6002820160006101000a81549060ff02191690555050905561281b565b8080612813906133ba565b9150506123c2565b5050565b82805461282b906130f2565b90600052602060002090601f01602090048101928261284d5760008555612894565b82601f1061286657805160ff1916838001178555612894565b82800160010185558215612894579182015b82811115612893578251825591602001919060010190612878565b5b5090506128a19190612972565b5090565b8280546128b1906130f2565b90600052602060002090601f0160209004810192826128d35760008555612921565b82601f106128e45780548555612921565b8280016001018555821561292157600052602060002091601f016020900482015b82811115612920578254825591600101919060010190612905565b5b50905061292e9190612972565b5090565b50805461293e906130f2565b6000825580601f10612950575061296f565b601f01602090049060005260206000209081019061296e9190612972565b5b50565b5b8082111561298b576000816000905550600101612973565b5090565b600081519050919050565b600082825260208201905092915050565b6000819050602082019050919050565b600073ffffffffffffffffffffffffffffffffffffffff82169050919050565b60006129e6826129bb565b9050919050565b6129f6816129db565b82525050565b7f4e487b7100000000000000000000000000000000000000000000000000000000600052602160045260246000fd5b60028110612a3c57612a3b6129fc565b5b50565b6000819050612a4d82612a2b565b919050565b6000612a5d82612a3f565b9050919050565b612a6d81612a52565b82525050565b600081519050919050565b600082825260208201905092915050565b60005b83811015612aad578082015181840152602081019050612a92565b83811115612abc576000848401525b50505050565b6000601f19601f8301169050919050565b6000612ade82612a73565b612ae88185612a7e565b9350612af8818560208601612a8f565b612b0181612ac2565b840191505092915050565b60008115159050919050565b612b2181612b0c565b82525050565b6000608083016000830151612b3f60008601826129ed565b506020830151612b526020860182612a64565b5060408301518482036040860152612b6a8282612ad3565b9150506060830151612b7f6060860182612b18565b508091505092915050565b6000612b968383612b27565b905092915050565b6000602082019050919050565b6000612bb68261298f565b612bc0818561299a565b935083602082028501612bd2856129ab565b8060005b85811015612c0e5784840389528151612bef8582612b8a565b9450612bfa83612b9e565b925060208a01995050600181019050612bd6565b50829750879550505050505092915050565b60006020820190508181036000830152612c3a8184612bab565b905092915050565b6000604051905090565b600080fd5b600080fd5b6000819050919050565b612c6981612c56565b8114612c7457600080fd5b50565b600081359050612c8681612c60565b92915050565b612c95816129db565b8114612ca057600080fd5b50565b600081359050612cb281612c8c565b92915050565b60008060408385031215612ccf57612cce612c4c565b5b6000612cdd85828601612c77565b9250506020612cee85828601612ca3565b9150509250929050565b60008060408385031215612d0f57612d0e612c4c565b5b6000612d1d85828601612ca3565b9250506020612d2e85828601612c77565b9150509250929050565b600060208284031215612d4e57612d4d612c4c565b5b6000612d5c84828501612ca3565b91505092915050565b612d6e816129db565b82525050565b612d7d81612a52565b82525050565b600082825260208201905092915050565b6000612d9f82612a73565b612da98185612d83565b9350612db9818560208601612a8f565b612dc281612ac2565b840191505092915050565b612dd681612b0c565b82525050565b6000608082019050612df16000830187612d65565b612dfe6020830186612d74565b8181036040830152612e108185612d94565b9050612e1f6060830184612dcd565b95945050505050565b60028110612e3557600080fd5b50565b600081359050612e4781612e28565b92915050565b600080fd5b600080fd5b7f4e487b7100000000000000000000000000000000000000000000000000000000600052604160045260246000fd5b612e8f82612ac2565b810181811067ffffffffffffffff82111715612eae57612ead612e57565b5b80604052505050565b6000612ec1612c42565b9050612ecd8282612e86565b919050565b600067ffffffffffffffff821115612eed57612eec612e57565b5b612ef682612ac2565b9050602081019050919050565b82818337600083830152505050565b6000612f25612f2084612ed2565b612eb7565b905082815260208101848484011115612f4157612f40612e52565b5b612f4c848285612f03565b509392505050565b600082601f830112612f6957612f68612e4d565b5b8135612f79848260208601612f12565b91505092915050565b60008060408385031215612f9957612f98612c4c565b5b6000612fa785828601612e38565b925050602083013567ffffffffffffffff811115612fc857612fc7612c51565b5b612fd485828601612f54565b9150509250929050565b600060208284031215612ff457612ff3612c4c565b5b600061300284828501612c77565b91505092915050565b61301481612c56565b82525050565b6004811061302b5761302a6129fc565b5b50565b600081905061303c8261301a565b919050565b600061304c8261302e565b9050919050565b61305c81613041565b82525050565b600060c082019050613077600083018961300b565b6130846020830188612d65565b6130916040830187612d65565b61309e606083018661300b565b6130ab608083018561300b565b6130b860a0830184613053565b979650505050505050565b7f4e487b7100000000000000000000000000000000000000000000000000000000600052602260045260246000fd5b6000600282049050600182168061310a57607f821691505b60208210810361311d5761311c6130c3565b5b50919050565b7f5472616e73616374696f6e20646f6573206e6f74206578697374000000000000600082015250565b6000613159601a83612d83565b915061316482613123565b602082019050919050565b600060208201905081810360008301526131888161314c565b9050919050565b7f576172642773206163636f756e7420646f6573206e6f74206578697374000000600082015250565b60006131c5601d83612d83565b91506131d08261318f565b602082019050919050565b600060208201905081810360008301526131f4816131b8565b9050919050565b7f477561726469616e20646f6573206e6f74206d61746368000000000000000000600082015250565b6000613231601783612d83565b915061323c826131fb565b602082019050919050565b6000602082019050818103600083015261326081613224565b9050919050565b7f477561726469616e2773206163636f756e7420646f6573206e6f74206578697360008201527f7400000000000000000000000000000000000000000000000000000000000000602082015250565b60006132c3602183612d83565b91506132ce82613267565b604082019050919050565b600060208201905081810360008301526132f2816132b6565b9050919050565b7f477561726469616e20646f6573206e6f74206861766520656e6f75676820626160008201527f6c616e6365000000000000000000000000000000000000000000000000000000602082015250565b6000613355602583612d83565b9150613360826132f9565b604082019050919050565b6000602082019050818103600083015261338481613348565b9050919050565b7f4e487b7100000000000000000000000000000000000000000000000000000000600052601160045260246000fd5b60006133c582612c56565b91507fffffffffffffffffffffffffffffffffffffffffffffffffffffffffffffffff82036133f7576133f661338b565b5b600182019050919050565b7f4163636f756e7420616c72656164792065786973747300000000000000000000600082015250565b6000613438601683612d83565b915061344382613402565b602082019050919050565b600060208201905081810360008301526134678161342b565b9050919050565b7f5761726420616c726561647920686173206120677561726469616e0000000000600082015250565b60006134a4601b83612d83565b91506134af8261346e565b602082019050919050565b600060208201905081810360008301526134d381613497565b9050919050565b7f4e487b7100000000000000000000000000000000000000000000000000000000600052603260045260246000fd5b600061351482612c56565b915061351f83612c56565b9250828210156135325761353161338b565b5b828203905092915050565b7f4e487b7100000000000000000000000000000000000000000000000000000000600052603160045260246000fdfea2646970667358221220107f6a7a0c796ef38e5af54dcaf7e59de8d5123fec9641a48d8e975b0d20649d64736f6c634300080d0033",
  "immutableReferences": {},
  "source": "// SPDX-License-Identifier: MIT\npragma solidity ^0.8.13;\n\ncontract PocketCrypto {\n\n\tenum Role {GUARDIAN, WARD} \n\tenum TransactionStatus {NONE, PENDING, APPROVED, REJECTED}\n\n\tstruct Account {\n\t\taddress owner;\n\t\tRole role;\n\t\tstring nickname;\n\t\tbool isAccount;\n\t}\n\n\tstruct Transaction {\n\t\tuint id;\n\t\taddress from;\n\t\taddress to;\n\t\tuint amount;\n\t\tuint date; //date is the recent status date in seconds\n\t\tTransactionStatus status;\n\t}\n\n\t//Used to generate transaction ids\n\tuint numOfTransactions = 0;\n\n\t//arr of all ward accounts\n\tAccount[] public wardAccounts;\n\n\t// mapping of address to all accounts\n\tmapping(address => Account) public account;\n\n\t// mapping of address of guardian to their ward accounts\n\tmapping(address => Account[]) public wards;\n\n\t// mapping of address of ward to their guardian account\n\tmapping(address => Account) public guardian;\n\n\t//mapping of id to transactions\n\tmapping(uint => Transaction) public transactions;\n\t\n\tfunction addAccount(Role _role, string memory _nickname) public {\n\t\t\n\t\t//Account must not exist\n\t\trequire(\n\t\t\taccount[msg.sender].isAccount == false, \n\t\t\t\"Account already exists\"\n\t\t);\n\n\t\taccount[msg.sender] = Account({\n\t\t\towner: msg.sender,\n\t\t\trole: _role,\n\t\t\tnickname: _nickname,\n\t\t\tisAccount: true\n\t\t});\n\n\t\tif (account[msg.sender].role == Role.WARD) {\n\t\t\twardAccounts.push(account[msg.sender]);\n\t\t}\n\t}\n\n\tfunction addWard(address _ward) public {\n\t\t\n\t\t//Guardian's account must exist\n\t\trequire(\n\t\t\taccount[msg.sender].isAccount == true && account[msg.sender].role == Role.GUARDIAN,\n\t\t\t\"Guardian's account does not exist\"\n\t\t);\n\n\t\t//Ward's account must exist\n\t\trequire(\n\t\t\taccount[_ward].isAccount == true && account[_ward].role == Role.WARD,\n\t\t\t\"Ward's account does not exist\"\n\t\t);\n\n\t\t//Ward must not have a guardian\n\t\trequire(\n\t\t\tguardian[_ward].isAccount == false, \"Ward already has a guardian\"\n\t\t);\n\n\n\t\twards[msg.sender].push(account[_ward]);\n\t\tguardian[_ward] = account[msg.sender];\n\t}\n\n\tfunction deleteWard(address _ward) public {\n\t\t//Guardian's account must exist\n\t\trequire(\n\t\t\taccount[msg.sender].isAccount == true && account[msg.sender].role == Role.GUARDIAN,\n\t\t\t\"Guardian's account does not exist\"\n\t\t);\n\n\t\t//Ward's account must exist\n\t\trequire(\n\t\t\taccount[_ward].isAccount == true && account[_ward].role == Role.WARD,\n\t\t\t\"Ward's account does not exist\"\n\t\t);\n\n\t\t//Ward must have this account as guardian\n\t\trequire(\n\t\t\tguardian[_ward].isAccount == true && guardian[_ward].owner == msg.sender,\n\t\t\t\"Guardian does not match\"\n\t\t);\n\n\t\tremoveWardByGuardian(msg.sender);\n\t\tguardian[_ward].isAccount = false;\n\t}\n\n\t//Request new transaction from guardian\n\tfunction requestTransaction(address _guardian, uint _amount) public {\n\t\t//Ward's account must exist\n\t\trequire(\n\t\t\taccount[msg.sender].isAccount == true && account[msg.sender].role == Role.WARD,\n\t\t\t\"Ward's account does not exist\"\n\t\t);\n\n\t\t//Guardian's account must exist\n\t\trequire(\n\t\t\taccount[_guardian].isAccount == true && account[_guardian].role == Role.GUARDIAN,\n\t\t\t\"Guardian's account does not exist\"\n\t\t);\n\n\t\t//Ward must have this account as guardian\n\t\trequire(\n\t\t\tguardian[msg.sender].isAccount == true && guardian[msg.sender].owner == _guardian,\n\t\t\t\"Guardian does not match\"\n\t\t);\n\n\t\t//Guardian must have enough balance\n\t\trequire(\n\t\t\taccount[_guardian].owner.balance >= _amount,\n\t\t\t\"Guardian does not have enough balance\"\n\t\t);\n\n\t\tnumOfTransactions++;\n\t\ttransactions[numOfTransactions] = Transaction({\n\t\t\tid: numOfTransactions,\n\t\t\tfrom: _guardian,\n\t\t\tto: msg.sender,\n\t\t\tamount: _amount,\n\t\t\tdate: block.timestamp,\n\t\t\tstatus: TransactionStatus.PENDING\n\t\t});\n\t}\n\n\t//Approve transaction raised by a ward\n\tfunction approveTransaction(uint _id, address _ward) public {\n\t\t\n\t\t//Transaction must exist\n\t\trequire(\n\t\t\ttransactions[_id].id == _id,\n\t\t\t\"Transaction does not exist\"\n\t\t);\n\n\t\t//Ward's account must exist\n\t\trequire(\n\t\t\taccount[_ward].isAccount == true && account[_ward].role == Role.WARD,\n\t\t\t\"Ward's account does not exist\"\n\t\t);\n\n\t\t//Ward must have this account as guardian\n\t\trequire(\n\t\t\tguardian[_ward].isAccount == true && guardian[_ward].owner == msg.sender,\n\t\t\t\"Guardian does not match\"\n\t\t);\n\n\t\t//Guardian must have enough balance\n\t\trequire(\n\t\t\tmsg.sender.balance >= transactions[_id].amount,\n\t\t\t\"Guardian does not have enough balance\"\n\t\t);\n\n\t\ttransactions[_id].status = TransactionStatus.APPROVED;\n\t}\n\n\t//Reject transaction raised by a ward\n\tfunction rejectTransaction(uint _id, address _ward) public {\n\t\t\n\t\t//Transaction must exist\n\t\trequire(\n\t\t\ttransactions[_id].id == _id,\n\t\t\t\"Transaction does not exist\"\n\t\t);\n\n\t\t//Ward's account must exist\n\t\trequire(\n\t\t\taccount[_ward].isAccount == true && account[_ward].role == Role.WARD,\n\t\t\t\"Ward's account does not exist\"\n\t\t);\n\n\t\t//Ward must have this account as guardian\n\t\trequire(\n\t\t\tguardian[_ward].isAccount == true && guardian[_ward].owner == msg.sender,\n\t\t\t\"Guardian does not match\"\n\t\t);\n\n\t\ttransactions[_id].status = TransactionStatus.REJECTED;\n\t}\n\n\tfunction getAllWards() public view returns (Account[] memory) {\n\t\treturn wardAccounts;\n\t}\n\n\tfunction getWardsByGuardian(address _guardian) public view returns (Account[] memory) {\n\t\treturn wards[_guardian];\n\t}\n\n\t//Removes a ward of a guardian from the guardian to wards arr mapping\n\tfunction removeWardByGuardian(address _guardian) internal {\n\t\t\n\t\tfor (uint i = 0; i < wards[_guardian].length; i++) {\n\t\t\tif (wards[_guardian][i].owner == _guardian) {\n\t\t\t\twards[_guardian][i].isAccount = false;\n\t\t\t\twards[_guardian][i] = wards[_guardian][wards[_guardian].length - 1];\n\t\t\t\twards[_guardian].pop();\n\t\t\t\tbreak;\n\t\t\t}\n\t\t}\n\t}\n\n}\n\n",
  "sourcePath": "/Users/adityazope/Projects/pocketcrypto/contracts/PocketCrypto.sol",
  "compiler": {
    "name": "solc",
    "version": "0.8.13+commit.abaa5c0e.Emscripten.clang"
  },
  "schemaVersion": "3.4.6",
  "updatedAt": "2022-05-17T12:48:48.817Z",
  "networkType": "ethereum",
  "devdoc": {
    "kind": "dev",
    "methods": {},
    "version": 1
  },
  "userdoc": {
    "kind": "user",
    "methods": {},
    "version": 1
  }
}