{
  "contractName": "PocketCrypto",
  "abi": [
    {
      "inputs": [
        {
          "internalType": "address",
          "name": "",
          "type": "address"
        }
      ],
      "name": "account",
      "outputs": [
        {
          "internalType": "address",
          "name": "owner",
          "type": "address"
        },
        {
          "internalType": "enum PocketCrypto.Role",
          "name": "role",
          "type": "uint8"
        },
        {
          "internalType": "string",
          "name": "nickname",
          "type": "string"
        },
        {
          "internalType": "bool",
          "name": "isAccount",
          "type": "bool"
        }
      ],
      "stateMutability": "view",
      "type": "function",
      "constant": true
    },
    {
      "inputs": [
        {
          "internalType": "address",
          "name": "",
          "type": "address"
        }
      ],
      "name": "guardian",
      "outputs": [
        {
          "internalType": "address",
          "name": "owner",
          "type": "address"
        },
        {
          "internalType": "enum PocketCrypto.Role",
          "name": "role",
          "type": "uint8"
        },
        {
          "internalType": "string",
          "name": "nickname",
          "type": "string"
        },
        {
          "internalType": "bool",
          "name": "isAccount",
          "type": "bool"
        }
      ],
      "stateMutability": "view",
      "type": "function",
      "constant": true
    },
    {
      "inputs": [],
      "name": "numOfTransactions",
      "outputs": [
        {
          "internalType": "uint256",
          "name": "",
          "type": "uint256"
        }
      ],
      "stateMutability": "view",
      "type": "function",
      "constant": true
    },
    {
      "inputs": [
        {
          "internalType": "uint256",
          "name": "",
          "type": "uint256"
        }
      ],
      "name": "transactions",
      "outputs": [
        {
          "internalType": "uint256",
          "name": "id",
          "type": "uint256"
        },
        {
          "internalType": "address",
          "name": "from",
          "type": "address"
        },
        {
          "internalType": "address",
          "name": "to",
          "type": "address"
        },
        {
          "internalType": "uint256",
          "name": "amount",
          "type": "uint256"
        },
        {
          "internalType": "uint256",
          "name": "date",
          "type": "uint256"
        },
        {
          "internalType": "enum PocketCrypto.TransactionStatus",
          "name": "status",
          "type": "uint8"
        }
      ],
      "stateMutability": "view",
      "type": "function",
      "constant": true
    },
    {
      "inputs": [
        {
          "internalType": "uint256",
          "name": "",
          "type": "uint256"
        }
      ],
      "name": "wardAccounts",
      "outputs": [
        {
          "internalType": "address",
          "name": "owner",
          "type": "address"
        },
        {
          "internalType": "enum PocketCrypto.Role",
          "name": "role",
          "type": "uint8"
        },
        {
          "internalType": "string",
          "name": "nickname",
          "type": "string"
        },
        {
          "internalType": "bool",
          "name": "isAccount",
          "type": "bool"
        }
      ],
      "stateMutability": "view",
      "type": "function",
      "constant": true
    },
    {
      "inputs": [
        {
          "internalType": "address",
          "name": "",
          "type": "address"
        },
        {
          "internalType": "uint256",
          "name": "",
          "type": "uint256"
        }
      ],
      "name": "wards",
      "outputs": [
        {
          "internalType": "address",
          "name": "owner",
          "type": "address"
        },
        {
          "internalType": "enum PocketCrypto.Role",
          "name": "role",
          "type": "uint8"
        },
        {
          "internalType": "string",
          "name": "nickname",
          "type": "string"
        },
        {
          "internalType": "bool",
          "name": "isAccount",
          "type": "bool"
        }
      ],
      "stateMutability": "view",
      "type": "function",
      "constant": true
    },
    {
      "inputs": [
        {
          "internalType": "enum PocketCrypto.Role",
          "name": "_role",
          "type": "uint8"
        },
        {
          "internalType": "string",
          "name": "_nickname",
          "type": "string"
        }
      ],
      "name": "addAccount",
      "outputs": [],
      "stateMutability": "nonpayable",
      "type": "function"
    },
    {
      "inputs": [
        {
          "internalType": "address",
          "name": "_ward",
          "type": "address"
        }
      ],
      "name": "addWard",
      "outputs": [],
      "stateMutability": "nonpayable",
      "type": "function"
    },
    {
      "inputs": [
        {
          "internalType": "address",
          "name": "_ward",
          "type": "address"
        }
      ],
      "name": "deleteWard",
      "outputs": [],
      "stateMutability": "nonpayable",
      "type": "function"
    },
    {
      "inputs": [
        {
          "internalType": "address",
          "name": "_guardian",
          "type": "address"
        },
        {
          "internalType": "uint256",
          "name": "_amount",
          "type": "uint256"
        }
      ],
      "name": "requestTransaction",
      "outputs": [],
      "stateMutability": "nonpayable",
      "type": "function"
    },
    {
      "inputs": [
        {
          "internalType": "uint256",
          "name": "_id",
          "type": "uint256"
        },
        {
          "internalType": "address",
          "name": "_ward",
          "type": "address"
        }
      ],
      "name": "approveTransaction",
      "outputs": [],
      "stateMutability": "nonpayable",
      "type": "function"
    },
    {
      "inputs": [
        {
          "internalType": "uint256",
          "name": "_id",
          "type": "uint256"
        },
        {
          "internalType": "address",
          "name": "_ward",
          "type": "address"
        }
      ],
      "name": "rejectTransaction",
      "outputs": [],
      "stateMutability": "nonpayable",
      "type": "function"
    },
    {
      "inputs": [],
      "name": "getAllWards",
      "outputs": [
        {
          "components": [
            {
              "internalType": "address",
              "name": "owner",
              "type": "address"
            },
            {
              "internalType": "enum PocketCrypto.Role",
              "name": "role",
              "type": "uint8"
            },
            {
              "internalType": "string",
              "name": "nickname",
              "type": "string"
            },
            {
              "internalType": "bool",
              "name": "isAccount",
              "type": "bool"
            }
          ],
          "internalType": "struct PocketCrypto.Account[]",
          "name": "",
          "type": "tuple[]"
        }
      ],
      "stateMutability": "view",
      "type": "function",
      "constant": true
    },
    {
      "inputs": [
        {
          "internalType": "address",
          "name": "_guardian",
          "type": "address"
        }
      ],
      "name": "getWardsByGuardian",
      "outputs": [
        {
          "components": [
            {
              "internalType": "address",
              "name": "owner",
              "type": "address"
            },
            {
              "internalType": "enum PocketCrypto.Role",
              "name": "role",
              "type": "uint8"
            },
            {
              "internalType": "string",
              "name": "nickname",
              "type": "string"
            },
            {
              "internalType": "bool",
              "name": "isAccount",
              "type": "bool"
            }
          ],
          "internalType": "struct PocketCrypto.Account[]",
          "name": "",
          "type": "tuple[]"
        }
      ],
      "stateMutability": "view",
      "type": "function",
      "constant": true
    }
  ],
  "bytecode": "0x60806040526000805534801561001457600080fd5b50613826806100246000396000f3fe608060405234801561001057600080fd5b50600436106100ea5760003560e01c80639ace38c21161008c578063ee9c268111610066578063ee9c26811461027d578063f29e223614610299578063f5f871f3146102cc578063fddd776c146102e8576100ea565b80639ace38c2146101f7578063c1fcc3071461022c578063d83328001461025f576100ea565b806373b9aa91116100c857806373b9aa9114610145578063822138121461017857806384166c521461019457806395a1edfa146101c4576100ea565b80631673e55f146100ef5780632f8076d11461010d57806344452f0214610129575b600080fd5b6100f7610304565b6040516101049190612e89565b60405180910390f35b61012760048036038101906101229190612f21565b6104a1565b005b610143600480360381019061013e9190612f61565b610894565b005b61015f600480360381019061015a9190612fa1565b610e24565b60405161016f9493929190613045565b60405180910390f35b610192600480360381019061018d91906131eb565b610f16565b005b6101ae60048036038101906101a99190612fa1565b6112ca565b6040516101bb9190612e89565b60405180910390f35b6101de60048036038101906101d99190612f61565b6114a6565b6040516101ee9493929190613045565b60405180910390f35b610211600480360381019061020c9190613247565b6115b5565b604051610223969594939291906132cb565b60405180910390f35b61024660048036038101906102419190613247565b61163e565b6040516102569493929190613045565b60405180910390f35b610267611740565b604051610274919061332c565b60405180910390f35b61029760048036038101906102929190612fa1565b611746565b005b6102b360048036038101906102ae9190612fa1565b611d14565b6040516102c39493929190613045565b60405180910390f35b6102e660048036038101906102e19190612f21565b611e06565b005b61030260048036038101906102fd9190612fa1565b612269565b005b60606001805480602002602001604051908101604052809291908181526020016000905b8282101561049857838290600052602060002090600302016040518060800160405290816000820160009054906101000a900473ffffffffffffffffffffffffffffffffffffffff1673ffffffffffffffffffffffffffffffffffffffff1673ffffffffffffffffffffffffffffffffffffffff1681526020016000820160149054906101000a900460ff1660018111156103c6576103c5612c65565b5b60018111156103d8576103d7612c65565b5b81526020016001820180546103ec90613376565b80601f016020809104026020016040519081016040528092919081815260200182805461041890613376565b80156104655780601f1061043a57610100808354040283529160200191610465565b820191906000526020600020905b81548152906001019060200180831161044857829003601f168201915b505050505081526020016002820160009054906101000a900460ff16151515158152505081526020019060010190610328565b50505050905090565b816005600084815260200190815260200160002060000154146104f9576040517f08c379a00000000000000000000000000000000000000000000000000000000081526004016104f0906133f3565b60405180910390fd5b60011515600260003373ffffffffffffffffffffffffffffffffffffffff1673ffffffffffffffffffffffffffffffffffffffff16815260200190815260200160002060020160009054906101000a900460ff1615151480156105cf57506000600181111561056b5761056a612c65565b5b600260003373ffffffffffffffffffffffffffffffffffffffff1673ffffffffffffffffffffffffffffffffffffffff16815260200190815260200160002060000160149054906101000a900460ff1660018111156105cd576105cc612c65565b5b145b61060e576040517f08c379a000000000000000000000000000000000000000000000000000000000815260040161060590613485565b60405180910390fd5b60011515600260008373ffffffffffffffffffffffffffffffffffffffff1673ffffffffffffffffffffffffffffffffffffffff16815260200190815260200160002060020160009054906101000a900460ff1615151480156106e3575060018081111561067f5761067e612c65565b5b600260008373ffffffffffffffffffffffffffffffffffffffff1673ffffffffffffffffffffffffffffffffffffffff16815260200190815260200160002060000160149054906101000a900460ff1660018111156106e1576106e0612c65565b5b145b610722576040517f08c379a0000000000000000000000000000000000000000000000000000000008152600401610719906134f1565b60405180910390fd5b60011515600460008373ffffffffffffffffffffffffffffffffffffffff1673ffffffffffffffffffffffffffffffffffffffff16815260200190815260200160002060020160009054906101000a900460ff16151514801561081257503373ffffffffffffffffffffffffffffffffffffffff16600460008373ffffffffffffffffffffffffffffffffffffffff1673ffffffffffffffffffffffffffffffffffffffff16815260200190815260200160002060000160009054906101000a900473ffffffffffffffffffffffffffffffffffffffff1673ffffffffffffffffffffffffffffffffffffffff16145b610851576040517f08c379a00000000000000000000000000000000000000000000000000000000081526004016108489061355d565b60405180910390fd5b60036005600084815260200190815260200160002060050160006101000a81548160ff0219169083600381111561088b5761088a612c65565b5b02179055505050565b60011515600260003373ffffffffffffffffffffffffffffffffffffffff1673ffffffffffffffffffffffffffffffffffffffff16815260200190815260200160002060020160009054906101000a900460ff161515148015610969575060018081111561090557610904612c65565b5b600260003373ffffffffffffffffffffffffffffffffffffffff1673ffffffffffffffffffffffffffffffffffffffff16815260200190815260200160002060000160149054906101000a900460ff16600181111561096757610966612c65565b5b145b6109a8576040517f08c379a000000000000000000000000000000000000000000000000000000000815260040161099f906134f1565b60405180910390fd5b60011515600260008473ffffffffffffffffffffffffffffffffffffffff1673ffffffffffffffffffffffffffffffffffffffff16815260200190815260200160002060020160009054906101000a900460ff161515148015610a7e575060006001811115610a1a57610a19612c65565b5b600260008473ffffffffffffffffffffffffffffffffffffffff1673ffffffffffffffffffffffffffffffffffffffff16815260200190815260200160002060000160149054906101000a900460ff166001811115610a7c57610a7b612c65565b5b145b610abd576040517f08c379a0000000000000000000000000000000000000000000000000000000008152600401610ab490613485565b60405180910390fd5b60011515600460003373ffffffffffffffffffffffffffffffffffffffff1673ffffffffffffffffffffffffffffffffffffffff16815260200190815260200160002060020160009054906101000a900460ff161515148015610bad57508173ffffffffffffffffffffffffffffffffffffffff16600460003373ffffffffffffffffffffffffffffffffffffffff1673ffffffffffffffffffffffffffffffffffffffff16815260200190815260200160002060000160009054906101000a900473ffffffffffffffffffffffffffffffffffffffff1673ffffffffffffffffffffffffffffffffffffffff16145b610bec576040517f08c379a0000000000000000000000000000000000000000000000000000000008152600401610be39061355d565b60405180910390fd5b80600260008473ffffffffffffffffffffffffffffffffffffffff1673ffffffffffffffffffffffffffffffffffffffff16815260200190815260200160002060000160009054906101000a900473ffffffffffffffffffffffffffffffffffffffff1673ffffffffffffffffffffffffffffffffffffffff16311015610ca8576040517f08c379a0000000000000000000000000000000000000000000000000000000008152600401610c9f906135ef565b60405180910390fd5b600080815480929190610cba9061363e565b91905055506040518060c0016040528060005481526020018373ffffffffffffffffffffffffffffffffffffffff1681526020013373ffffffffffffffffffffffffffffffffffffffff16815260200182815260200142815260200160016003811115610d2a57610d29612c65565b5b81525060056000805481526020019081526020016000206000820151816000015560208201518160010160006101000a81548173ffffffffffffffffffffffffffffffffffffffff021916908373ffffffffffffffffffffffffffffffffffffffff16021790555060408201518160020160006101000a81548173ffffffffffffffffffffffffffffffffffffffff021916908373ffffffffffffffffffffffffffffffffffffffff160217905550606082015181600301556080820151816004015560a08201518160050160006101000a81548160ff02191690836003811115610e1857610e17612c65565b5b02179055509050505050565b60026020528060005260406000206000915090508060000160009054906101000a900473ffffffffffffffffffffffffffffffffffffffff16908060000160149054906101000a900460ff1690806001018054610e8090613376565b80601f0160208091040260200160405190810160405280929190818152602001828054610eac90613376565b8015610ef95780601f10610ece57610100808354040283529160200191610ef9565b820191906000526020600020905b815481529060010190602001808311610edc57829003601f168201915b5050505050908060020160009054906101000a900460ff16905084565b60001515600260003373ffffffffffffffffffffffffffffffffffffffff1673ffffffffffffffffffffffffffffffffffffffff16815260200190815260200160002060020160009054906101000a900460ff16151514610fac576040517f08c379a0000000000000000000000000000000000000000000000000000000008152600401610fa3906136d2565b60405180910390fd5b60405180608001604052803373ffffffffffffffffffffffffffffffffffffffff168152602001836001811115610fe657610fe5612c65565b5b815260200182815260200160011515815250600260003373ffffffffffffffffffffffffffffffffffffffff1673ffffffffffffffffffffffffffffffffffffffff16815260200190815260200160002060008201518160000160006101000a81548173ffffffffffffffffffffffffffffffffffffffff021916908373ffffffffffffffffffffffffffffffffffffffff16021790555060208201518160000160146101000a81548160ff021916908360018111156110a9576110a8612c65565b5b021790555060408201518160010190805190602001906110ca929190612a88565b5060608201518160020160006101000a81548160ff02191690831515021790555090505060018081111561110157611100612c65565b5b600260003373ffffffffffffffffffffffffffffffffffffffff1673ffffffffffffffffffffffffffffffffffffffff16815260200190815260200160002060000160149054906101000a900460ff16600181111561116357611162612c65565b5b036112c6576001600260003373ffffffffffffffffffffffffffffffffffffffff1673ffffffffffffffffffffffffffffffffffffffff16815260200190815260200160002090806001815401808255809150506001900390600052602060002090600302016000909190919091506000820160009054906101000a900473ffffffffffffffffffffffffffffffffffffffff168160000160006101000a81548173ffffffffffffffffffffffffffffffffffffffff021916908373ffffffffffffffffffffffffffffffffffffffff1602179055506000820160149054906101000a900460ff168160000160146101000a81548160ff0219169083600181111561127157611270612c65565b5b0217905550600182018160010190805461128a90613376565b611295929190612b0e565b506002820160009054906101000a900460ff168160020160006101000a81548160ff02191690831515021790555050505b5050565b6060600360008373ffffffffffffffffffffffffffffffffffffffff1673ffffffffffffffffffffffffffffffffffffffff168152602001908152602001600020805480602002602001604051908101604052809291908181526020016000905b8282101561149b57838290600052602060002090600302016040518060800160405290816000820160009054906101000a900473ffffffffffffffffffffffffffffffffffffffff1673ffffffffffffffffffffffffffffffffffffffff1673ffffffffffffffffffffffffffffffffffffffff1681526020016000820160149054906101000a900460ff1660018111156113c9576113c8612c65565b5b60018111156113db576113da612c65565b5b81526020016001820180546113ef90613376565b80601f016020809104026020016040519081016040528092919081815260200182805461141b90613376565b80156114685780601f1061143d57610100808354040283529160200191611468565b820191906000526020600020905b81548152906001019060200180831161144b57829003601f168201915b505050505081526020016002820160009054906101000a900460ff1615151515815250508152602001906001019061132b565b505050509050919050565b600360205281600052604060002081815481106114c257600080fd5b9060005260206000209060030201600091509150508060000160009054906101000a900473ffffffffffffffffffffffffffffffffffffffff16908060000160149054906101000a900460ff169080600101805461151f90613376565b80601f016020809104026020016040519081016040528092919081815260200182805461154b90613376565b80156115985780601f1061156d57610100808354040283529160200191611598565b820191906000526020600020905b81548152906001019060200180831161157b57829003601f168201915b5050505050908060020160009054906101000a900460ff16905084565b60056020528060005260406000206000915090508060000154908060010160009054906101000a900473ffffffffffffffffffffffffffffffffffffffff16908060020160009054906101000a900473ffffffffffffffffffffffffffffffffffffffff16908060030154908060040154908060050160009054906101000a900460ff16905086565b6001818154811061164e57600080fd5b90600052602060002090600302016000915090508060000160009054906101000a900473ffffffffffffffffffffffffffffffffffffffff16908060000160149054906101000a900460ff16908060010180546116aa90613376565b80601f01602080910402602001604051908101604052809291908181526020018280546116d690613376565b80156117235780601f106116f857610100808354040283529160200191611723565b820191906000526020600020905b81548152906001019060200180831161170657829003601f168201915b5050505050908060020160009054906101000a900460ff16905084565b60005481565b60011515600260003373ffffffffffffffffffffffffffffffffffffffff1673ffffffffffffffffffffffffffffffffffffffff16815260200190815260200160002060020160009054906101000a900460ff16151514801561181c5750600060018111156117b8576117b7612c65565b5b600260003373ffffffffffffffffffffffffffffffffffffffff1673ffffffffffffffffffffffffffffffffffffffff16815260200190815260200160002060000160149054906101000a900460ff16600181111561181a57611819612c65565b5b145b61185b576040517f08c379a000000000000000000000000000000000000000000000000000000000815260040161185290613485565b60405180910390fd5b60011515600260008373ffffffffffffffffffffffffffffffffffffffff1673ffffffffffffffffffffffffffffffffffffffff16815260200190815260200160002060020160009054906101000a900460ff16151514801561193057506001808111156118cc576118cb612c65565b5b600260008373ffffffffffffffffffffffffffffffffffffffff1673ffffffffffffffffffffffffffffffffffffffff16815260200190815260200160002060000160149054906101000a900460ff16600181111561192e5761192d612c65565b5b145b61196f576040517f08c379a0000000000000000000000000000000000000000000000000000000008152600401611966906134f1565b60405180910390fd5b60001515600460008373ffffffffffffffffffffffffffffffffffffffff1673ffffffffffffffffffffffffffffffffffffffff16815260200190815260200160002060020160009054906101000a900460ff16151514611a05576040517f08c379a00000000000000000000000000000000000000000000000000000000081526004016119fc9061373e565b60405180910390fd5b600360003373ffffffffffffffffffffffffffffffffffffffff1673ffffffffffffffffffffffffffffffffffffffff168152602001908152602001600020600260008373ffffffffffffffffffffffffffffffffffffffff1673ffffffffffffffffffffffffffffffffffffffff16815260200190815260200160002090806001815401808255809150506001900390600052602060002090600302016000909190919091506000820160009054906101000a900473ffffffffffffffffffffffffffffffffffffffff168160000160006101000a81548173ffffffffffffffffffffffffffffffffffffffff021916908373ffffffffffffffffffffffffffffffffffffffff1602179055506000820160149054906101000a900460ff168160000160146101000a81548160ff02191690836001811115611b4b57611b4a612c65565b5b02179055506001820181600101908054611b6490613376565b611b6f929190612b0e565b506002820160009054906101000a900460ff168160020160006101000a81548160ff0219169083151502179055505050600260003373ffffffffffffffffffffffffffffffffffffffff1673ffffffffffffffffffffffffffffffffffffffff168152602001908152602001600020600460008373ffffffffffffffffffffffffffffffffffffffff1673ffffffffffffffffffffffffffffffffffffffff1681526020019081526020016000206000820160009054906101000a900473ffffffffffffffffffffffffffffffffffffffff168160000160006101000a81548173ffffffffffffffffffffffffffffffffffffffff021916908373ffffffffffffffffffffffffffffffffffffffff1602179055506000820160149054906101000a900460ff168160000160146101000a81548160ff02191690836001811115611cbc57611cbb612c65565b5b02179055506001820181600101908054611cd590613376565b611ce0929190612b0e565b506002820160009054906101000a900460ff168160020160006101000a81548160ff02191690831515021790555090505050565b60046020528060005260406000206000915090508060000160009054906101000a900473ffffffffffffffffffffffffffffffffffffffff16908060000160149054906101000a900460ff1690806001018054611d7090613376565b80601f0160208091040260200160405190810160405280929190818152602001828054611d9c90613376565b8015611de95780601f10611dbe57610100808354040283529160200191611de9565b820191906000526020600020905b815481529060010190602001808311611dcc57829003601f168201915b5050505050908060020160009054906101000a900460ff16905084565b81600560008481526020019081526020016000206000015414611e5e576040517f08c379a0000000000000000000000000000000000000000000000000000000008152600401611e55906133f3565b60405180910390fd5b60011515600260003373ffffffffffffffffffffffffffffffffffffffff1673ffffffffffffffffffffffffffffffffffffffff16815260200190815260200160002060020160009054906101000a900460ff161515148015611f34575060006001811115611ed057611ecf612c65565b5b600260003373ffffffffffffffffffffffffffffffffffffffff1673ffffffffffffffffffffffffffffffffffffffff16815260200190815260200160002060000160149054906101000a900460ff166001811115611f3257611f31612c65565b5b145b611f73576040517f08c379a0000000000000000000000000000000000000000000000000000000008152600401611f6a90613485565b60405180910390fd5b60011515600260008373ffffffffffffffffffffffffffffffffffffffff1673ffffffffffffffffffffffffffffffffffffffff16815260200190815260200160002060020160009054906101000a900460ff1615151480156120485750600180811115611fe457611fe3612c65565b5b600260008373ffffffffffffffffffffffffffffffffffffffff1673ffffffffffffffffffffffffffffffffffffffff16815260200190815260200160002060000160149054906101000a900460ff16600181111561204657612045612c65565b5b145b612087576040517f08c379a000000000000000000000000000000000000000000000000000000000815260040161207e906134f1565b60405180910390fd5b60011515600460008373ffffffffffffffffffffffffffffffffffffffff1673ffffffffffffffffffffffffffffffffffffffff16815260200190815260200160002060020160009054906101000a900460ff16151514801561217757503373ffffffffffffffffffffffffffffffffffffffff16600460008373ffffffffffffffffffffffffffffffffffffffff1673ffffffffffffffffffffffffffffffffffffffff16815260200190815260200160002060000160009054906101000a900473ffffffffffffffffffffffffffffffffffffffff1673ffffffffffffffffffffffffffffffffffffffff16145b6121b6576040517f08c379a00000000000000000000000000000000000000000000000000000000081526004016121ad9061355d565b60405180910390fd5b60056000838152602001908152602001600020600301543373ffffffffffffffffffffffffffffffffffffffff16311015612226576040517f08c379a000000000000000000000000000000000000000000000000000000000815260040161221d906135ef565b60405180910390fd5b60026005600084815260200190815260200160002060050160006101000a81548160ff021916908360038111156122605761225f612c65565b5b02179055505050565b60011515600260003373ffffffffffffffffffffffffffffffffffffffff1673ffffffffffffffffffffffffffffffffffffffff16815260200190815260200160002060020160009054906101000a900460ff16151514801561233f5750600060018111156122db576122da612c65565b5b600260003373ffffffffffffffffffffffffffffffffffffffff1673ffffffffffffffffffffffffffffffffffffffff16815260200190815260200160002060000160149054906101000a900460ff16600181111561233d5761233c612c65565b5b145b61237e576040517f08c379a000000000000000000000000000000000000000000000000000000000815260040161237590613485565b60405180910390fd5b60011515600260008373ffffffffffffffffffffffffffffffffffffffff1673ffffffffffffffffffffffffffffffffffffffff16815260200190815260200160002060020160009054906101000a900460ff16151514801561245357506001808111156123ef576123ee612c65565b5b600260008373ffffffffffffffffffffffffffffffffffffffff1673ffffffffffffffffffffffffffffffffffffffff16815260200190815260200160002060000160149054906101000a900460ff16600181111561245157612450612c65565b5b145b612492576040517f08c379a0000000000000000000000000000000000000000000000000000000008152600401612489906134f1565b60405180910390fd5b60011515600460008373ffffffffffffffffffffffffffffffffffffffff1673ffffffffffffffffffffffffffffffffffffffff16815260200190815260200160002060020160009054906101000a900460ff16151514801561258257503373ffffffffffffffffffffffffffffffffffffffff16600460008373ffffffffffffffffffffffffffffffffffffffff1673ffffffffffffffffffffffffffffffffffffffff16815260200190815260200160002060000160009054906101000a900473ffffffffffffffffffffffffffffffffffffffff1673ffffffffffffffffffffffffffffffffffffffff16145b6125c1576040517f08c379a00000000000000000000000000000000000000000000000000000000081526004016125b89061355d565b60405180910390fd5b6125ca33612628565b6000600460008373ffffffffffffffffffffffffffffffffffffffff1673ffffffffffffffffffffffffffffffffffffffff16815260200190815260200160002060020160006101000a81548160ff02191690831515021790555050565b60005b600360008373ffffffffffffffffffffffffffffffffffffffff1673ffffffffffffffffffffffffffffffffffffffff16815260200190815260200160002080549050811015612a84578173ffffffffffffffffffffffffffffffffffffffff16600360008473ffffffffffffffffffffffffffffffffffffffff1673ffffffffffffffffffffffffffffffffffffffff16815260200190815260200160002082815481106126dd576126dc61375e565b5b906000526020600020906003020160000160009054906101000a900473ffffffffffffffffffffffffffffffffffffffff1673ffffffffffffffffffffffffffffffffffffffff1603612a71576000600360008473ffffffffffffffffffffffffffffffffffffffff1673ffffffffffffffffffffffffffffffffffffffff168152602001908152602001600020828154811061277d5761277c61375e565b5b906000526020600020906003020160020160006101000a81548160ff021916908315150217905550600360008373ffffffffffffffffffffffffffffffffffffffff1673ffffffffffffffffffffffffffffffffffffffff1681526020019081526020016000206001600360008573ffffffffffffffffffffffffffffffffffffffff1673ffffffffffffffffffffffffffffffffffffffff16815260200190815260200160002080549050612833919061378d565b815481106128445761284361375e565b5b9060005260206000209060030201600360008473ffffffffffffffffffffffffffffffffffffffff1673ffffffffffffffffffffffffffffffffffffffff16815260200190815260200160002082815481106128a3576128a261375e565b5b90600052602060002090600302016000820160009054906101000a900473ffffffffffffffffffffffffffffffffffffffff168160000160006101000a81548173ffffffffffffffffffffffffffffffffffffffff021916908373ffffffffffffffffffffffffffffffffffffffff1602179055506000820160149054906101000a900460ff168160000160146101000a81548160ff021916908360018111156129505761294f612c65565b5b0217905550600182018160010190805461296990613376565b612974929190612b0e565b506002820160009054906101000a900460ff168160020160006101000a81548160ff021916908315150217905550905050600360008373ffffffffffffffffffffffffffffffffffffffff1673ffffffffffffffffffffffffffffffffffffffff1681526020019081526020016000208054806129f4576129f36137c1565b5b6001900381819060005260206000209060030201600080820160006101000a81549073ffffffffffffffffffffffffffffffffffffffff02191690556000820160146101000a81549060ff0219169055600182016000612a549190612b9b565b6002820160006101000a81549060ff021916905550509055612a84565b8080612a7c9061363e565b91505061262b565b5050565b828054612a9490613376565b90600052602060002090601f016020900481019282612ab65760008555612afd565b82601f10612acf57805160ff1916838001178555612afd565b82800160010185558215612afd579182015b82811115612afc578251825591602001919060010190612ae1565b5b509050612b0a9190612bdb565b5090565b828054612b1a90613376565b90600052602060002090601f016020900481019282612b3c5760008555612b8a565b82601f10612b4d5780548555612b8a565b82800160010185558215612b8a57600052602060002091601f016020900482015b82811115612b89578254825591600101919060010190612b6e565b5b509050612b979190612bdb565b5090565b508054612ba790613376565b6000825580601f10612bb95750612bd8565b601f016020900490600052602060002090810190612bd79190612bdb565b5b50565b5b80821115612bf4576000816000905550600101612bdc565b5090565b600081519050919050565b600082825260208201905092915050565b6000819050602082019050919050565b600073ffffffffffffffffffffffffffffffffffffffff82169050919050565b6000612c4f82612c24565b9050919050565b612c5f81612c44565b82525050565b7f4e487b7100000000000000000000000000000000000000000000000000000000600052602160045260246000fd5b60028110612ca557612ca4612c65565b5b50565b6000819050612cb682612c94565b919050565b6000612cc682612ca8565b9050919050565b612cd681612cbb565b82525050565b600081519050919050565b600082825260208201905092915050565b60005b83811015612d16578082015181840152602081019050612cfb565b83811115612d25576000848401525b50505050565b6000601f19601f8301169050919050565b6000612d4782612cdc565b612d518185612ce7565b9350612d61818560208601612cf8565b612d6a81612d2b565b840191505092915050565b60008115159050919050565b612d8a81612d75565b82525050565b6000608083016000830151612da86000860182612c56565b506020830151612dbb6020860182612ccd565b5060408301518482036040860152612dd38282612d3c565b9150506060830151612de86060860182612d81565b508091505092915050565b6000612dff8383612d90565b905092915050565b6000602082019050919050565b6000612e1f82612bf8565b612e298185612c03565b935083602082028501612e3b85612c14565b8060005b85811015612e775784840389528151612e588582612df3565b9450612e6383612e07565b925060208a01995050600181019050612e3f565b50829750879550505050505092915050565b60006020820190508181036000830152612ea38184612e14565b905092915050565b6000604051905090565b600080fd5b600080fd5b6000819050919050565b612ed281612ebf565b8114612edd57600080fd5b50565b600081359050612eef81612ec9565b92915050565b612efe81612c44565b8114612f0957600080fd5b50565b600081359050612f1b81612ef5565b92915050565b60008060408385031215612f3857612f37612eb5565b5b6000612f4685828601612ee0565b9250506020612f5785828601612f0c565b9150509250929050565b60008060408385031215612f7857612f77612eb5565b5b6000612f8685828601612f0c565b9250506020612f9785828601612ee0565b9150509250929050565b600060208284031215612fb757612fb6612eb5565b5b6000612fc584828501612f0c565b91505092915050565b612fd781612c44565b82525050565b612fe681612cbb565b82525050565b600082825260208201905092915050565b600061300882612cdc565b6130128185612fec565b9350613022818560208601612cf8565b61302b81612d2b565b840191505092915050565b61303f81612d75565b82525050565b600060808201905061305a6000830187612fce565b6130676020830186612fdd565b81810360408301526130798185612ffd565b90506130886060830184613036565b95945050505050565b6002811061309e57600080fd5b50565b6000813590506130b081613091565b92915050565b600080fd5b600080fd5b7f4e487b7100000000000000000000000000000000000000000000000000000000600052604160045260246000fd5b6130f882612d2b565b810181811067ffffffffffffffff82111715613117576131166130c0565b5b80604052505050565b600061312a612eab565b905061313682826130ef565b919050565b600067ffffffffffffffff821115613156576131556130c0565b5b61315f82612d2b565b9050602081019050919050565b82818337600083830152505050565b600061318e6131898461313b565b613120565b9050828152602081018484840111156131aa576131a96130bb565b5b6131b584828561316c565b509392505050565b600082601f8301126131d2576131d16130b6565b5b81356131e284826020860161317b565b91505092915050565b6000806040838503121561320257613201612eb5565b5b6000613210858286016130a1565b925050602083013567ffffffffffffffff81111561323157613230612eba565b5b61323d858286016131bd565b9150509250929050565b60006020828403121561325d5761325c612eb5565b5b600061326b84828501612ee0565b91505092915050565b61327d81612ebf565b82525050565b6004811061329457613293612c65565b5b50565b60008190506132a582613283565b919050565b60006132b582613297565b9050919050565b6132c5816132aa565b82525050565b600060c0820190506132e06000830189613274565b6132ed6020830188612fce565b6132fa6040830187612fce565b6133076060830186613274565b6133146080830185613274565b61332160a08301846132bc565b979650505050505050565b60006020820190506133416000830184613274565b92915050565b7f4e487b7100000000000000000000000000000000000000000000000000000000600052602260045260246000fd5b6000600282049050600182168061338e57607f821691505b6020821081036133a1576133a0613347565b5b50919050565b7f5472616e73616374696f6e20646f6573206e6f74206578697374000000000000600082015250565b60006133dd601a83612fec565b91506133e8826133a7565b602082019050919050565b6000602082019050818103600083015261340c816133d0565b9050919050565b7f477561726469616e2773206163636f756e7420646f6573206e6f74206578697360008201527f7400000000000000000000000000000000000000000000000000000000000000602082015250565b600061346f602183612fec565b915061347a82613413565b604082019050919050565b6000602082019050818103600083015261349e81613462565b9050919050565b7f576172642773206163636f756e7420646f6573206e6f74206578697374000000600082015250565b60006134db601d83612fec565b91506134e6826134a5565b602082019050919050565b6000602082019050818103600083015261350a816134ce565b9050919050565b7f477561726469616e20646f6573206e6f74206d61746368000000000000000000600082015250565b6000613547601783612fec565b915061355282613511565b602082019050919050565b600060208201905081810360008301526135768161353a565b9050919050565b7f477561726469616e20646f6573206e6f74206861766520656e6f75676820626160008201527f6c616e6365000000000000000000000000000000000000000000000000000000602082015250565b60006135d9602583612fec565b91506135e48261357d565b604082019050919050565b60006020820190508181036000830152613608816135cc565b9050919050565b7f4e487b7100000000000000000000000000000000000000000000000000000000600052601160045260246000fd5b600061364982612ebf565b91507fffffffffffffffffffffffffffffffffffffffffffffffffffffffffffffffff820361367b5761367a61360f565b5b600182019050919050565b7f4163636f756e7420616c72656164792065786973747300000000000000000000600082015250565b60006136bc601683612fec565b91506136c782613686565b602082019050919050565b600060208201905081810360008301526136eb816136af565b9050919050565b7f5761726420616c726561647920686173206120677561726469616e0000000000600082015250565b6000613728601b83612fec565b9150613733826136f2565b602082019050919050565b600060208201905081810360008301526137578161371b565b9050919050565b7f4e487b7100000000000000000000000000000000000000000000000000000000600052603260045260246000fd5b600061379882612ebf565b91506137a383612ebf565b9250828210156137b6576137b561360f565b5b828203905092915050565b7f4e487b7100000000000000000000000000000000000000000000000000000000600052603160045260246000fdfea26469706673582212200b81207140a9046b4e336eeaeeb439e5ad3394efa62ea2c41e613b2c3ce8256b64736f6c634300080e0033",
  "immutableReferences": {},
  "source": "// SPDX-License-Identifier: MIT\npragma solidity ^0.8.13;\n\ncontract PocketCrypto {\n\n\tenum Role {GUARDIAN, WARD} \n\tenum TransactionStatus {NONE, PENDING, APPROVED, REJECTED}\n\n\tstruct Account {\n\t\taddress owner;\n\t\tRole role;\n\t\tstring nickname;\n\t\tbool isAccount;\n\t}\n\n\tstruct Transaction {\n\t\tuint id;\n\t\taddress from;\n\t\taddress to;\n\t\tuint amount;\n\t\tuint date; //date is the recent status date in seconds\n\t\tTransactionStatus status;\n\t}\n\n\t//Used to generate transaction ids\n\tuint public numOfTransactions = 0;\n\n\t//arr of all ward accounts\n\tAccount[] public wardAccounts;\n\n\t// mapping of address to all accounts\n\tmapping(address => Account) public account;\n\n\t// mapping of address of guardian to their ward accounts\n\tmapping(address => Account[]) public wards;\n\n\t// mapping of address of ward to their guardian account\n\tmapping(address => Account) public guardian;\n\n\t//mapping of id to transactions\n\tmapping(uint => Transaction) public transactions;\n\t\n\tfunction addAccount(Role _role, string memory _nickname) public {\n\t\t\n\t\t//Account must not exist\n\t\trequire(\n\t\t\taccount[msg.sender].isAccount == false, \n\t\t\t\"Account already exists\"\n\t\t);\n\n\t\taccount[msg.sender] = Account({\n\t\t\towner: msg.sender,\n\t\t\trole: _role,\n\t\t\tnickname: _nickname,\n\t\t\tisAccount: true\n\t\t});\n\n\t\tif (account[msg.sender].role == Role.WARD) {\n\t\t\twardAccounts.push(account[msg.sender]);\n\t\t}\n\t}\n\n\tfunction addWard(address _ward) public {\n\t\t\n\t\t//Guardian's account must exist\n\t\trequire(\n\t\t\taccount[msg.sender].isAccount == true && account[msg.sender].role == Role.GUARDIAN,\n\t\t\t\"Guardian's account does not exist\"\n\t\t);\n\n\t\t//Ward's account must exist\n\t\trequire(\n\t\t\taccount[_ward].isAccount == true && account[_ward].role == Role.WARD,\n\t\t\t\"Ward's account does not exist\"\n\t\t);\n\n\t\t//Ward must not have a guardian\n\t\trequire(\n\t\t\tguardian[_ward].isAccount == false, \"Ward already has a guardian\"\n\t\t);\n\n\n\t\twards[msg.sender].push(account[_ward]);\n\t\tguardian[_ward] = account[msg.sender];\n\t}\n\n\tfunction deleteWard(address _ward) public {\n\t\t//Guardian's account must exist\n\t\trequire(\n\t\t\taccount[msg.sender].isAccount == true && account[msg.sender].role == Role.GUARDIAN,\n\t\t\t\"Guardian's account does not exist\"\n\t\t);\n\n\t\t//Ward's account must exist\n\t\trequire(\n\t\t\taccount[_ward].isAccount == true && account[_ward].role == Role.WARD,\n\t\t\t\"Ward's account does not exist\"\n\t\t);\n\n\t\t//Ward must have this account as guardian\n\t\trequire(\n\t\t\tguardian[_ward].isAccount == true && guardian[_ward].owner == msg.sender,\n\t\t\t\"Guardian does not match\"\n\t\t);\n\n\t\tremoveWardByGuardian(msg.sender);\n\t\tguardian[_ward].isAccount = false;\n\t}\n\n\t//Request new transaction from guardian\n\tfunction requestTransaction(address _guardian, uint _amount) public {\n\t\t//Ward's account must exist\n\t\trequire(\n\t\t\taccount[msg.sender].isAccount == true && account[msg.sender].role == Role.WARD,\n\t\t\t\"Ward's account does not exist\"\n\t\t);\n\n\t\t//Guardian's account must exist\n\t\trequire(\n\t\t\taccount[_guardian].isAccount == true && account[_guardian].role == Role.GUARDIAN,\n\t\t\t\"Guardian's account does not exist\"\n\t\t);\n\n\t\t//Ward must have this account as guardian\n\t\trequire(\n\t\t\tguardian[msg.sender].isAccount == true && guardian[msg.sender].owner == _guardian,\n\t\t\t\"Guardian does not match\"\n\t\t);\n\n\t\t//Guardian must have enough balance\n\t\trequire(\n\t\t\taccount[_guardian].owner.balance >= _amount,\n\t\t\t\"Guardian does not have enough balance\"\n\t\t);\n\n\t\tnumOfTransactions++;\n\t\ttransactions[numOfTransactions] = Transaction({\n\t\t\tid: numOfTransactions,\n\t\t\tfrom: _guardian,\n\t\t\tto: msg.sender,\n\t\t\tamount: _amount,\n\t\t\tdate: block.timestamp,\n\t\t\tstatus: TransactionStatus.PENDING\n\t\t});\n\t}\n\n\t//Approve transaction raised by a ward\n\tfunction approveTransaction(uint _id, address _ward) public {\n\t\t\n\t\t//Transaction must exist\n\t\trequire(\n\t\t\ttransactions[_id].id == _id,\n\t\t\t\"Transaction does not exist\"\n\t\t);\n\n\t\t//Guardian's account must exist\n\t\trequire(\n\t\t\taccount[msg.sender].isAccount == true && account[msg.sender].role == Role.GUARDIAN,\n\t\t\t\"Guardian's account does not exist\"\n\t\t);\n\n\t\t//Ward's account must exist\n\t\trequire(\n\t\t\taccount[_ward].isAccount == true && account[_ward].role == Role.WARD,\n\t\t\t\"Ward's account does not exist\"\n\t\t);\n\n\t\t//Ward must have this account as guardian\n\t\trequire(\n\t\t\tguardian[_ward].isAccount == true && guardian[_ward].owner == msg.sender,\n\t\t\t\"Guardian does not match\"\n\t\t);\n\n\t\t//TODO: This is checked while requesting transaction. Need to think if we still need it while approving transaction\n\t\t//Guardian must have enough balance\n\t\trequire(\n\t\t\tmsg.sender.balance >= transactions[_id].amount,\n\t\t\t\"Guardian does not have enough balance\"\n\t\t);\n\n\t\ttransactions[_id].status = TransactionStatus.APPROVED;\n\t}\n\n\t//Reject transaction raised by a ward\n\tfunction rejectTransaction(uint _id, address _ward) public {\n\t\t\n\t\t//Transaction must exist\n\t\trequire(\n\t\t\ttransactions[_id].id == _id,\n\t\t\t\"Transaction does not exist\"\n\t\t);\n\n\t\t//Guardian's account must exist\n\t\trequire(\n\t\t\taccount[msg.sender].isAccount == true && account[msg.sender].role == Role.GUARDIAN,\n\t\t\t\"Guardian's account does not exist\"\n\t\t);\n\t\t\n\t\t//Ward's account must exist\n\t\trequire(\n\t\t\taccount[_ward].isAccount == true && account[_ward].role == Role.WARD,\n\t\t\t\"Ward's account does not exist\"\n\t\t);\n\n\t\t//Ward must have this account as guardian\n\t\trequire(\n\t\t\tguardian[_ward].isAccount == true && guardian[_ward].owner == msg.sender,\n\t\t\t\"Guardian does not match\"\n\t\t);\n\n\t\ttransactions[_id].status = TransactionStatus.REJECTED;\n\t}\n\n\tfunction getAllWards() public view returns (Account[] memory) {\n\t\treturn wardAccounts;\n\t}\n\n\tfunction getWardsByGuardian(address _guardian) public view returns (Account[] memory) {\n\t\treturn wards[_guardian];\n\t}\n\n\t//Removes a ward of a guardian from the guardian to wards arr mapping\n\tfunction removeWardByGuardian(address _guardian) internal {\n\t\t\n\t\tfor (uint i = 0; i < wards[_guardian].length; i++) {\n\t\t\tif (wards[_guardian][i].owner == _guardian) {\n\t\t\t\twards[_guardian][i].isAccount = false;\n\t\t\t\twards[_guardian][i] = wards[_guardian][wards[_guardian].length - 1];\n\t\t\t\twards[_guardian].pop();\n\t\t\t\tbreak;\n\t\t\t}\n\t\t}\n\t}\n\n}\n\n",
  "sourcePath": "/Users/adityazope/Projects/pocketcrypto/contracts/PocketCrypto.sol",
  "compiler": {
    "name": "solc",
    "version": "0.8.14+commit.80d49f37.Emscripten.clang"
  },
  "schemaVersion": "3.4.6",
  "updatedAt": "2022-05-21T15:24:04.552Z",
  "networkType": "ethereum",
  "devdoc": {
    "kind": "dev",
    "methods": {},
    "version": 1
  },
  "userdoc": {
    "kind": "user",
    "methods": {},
    "version": 1
  }
}